:020000000D28C9
:10000800DE00030E8312B3000408B4000A08B5002A
:1000180017280E288312BB018313203084002F3049
:1000280032218301AA280B1D2A280B118101803057
:100038002602031C282888308B00A601AC01AB01DE
:10004800FE308505BB102A280130A6070B1C8B281B
:100058000D302B0203188B28851D48282B080319FF
:1000680039280108AE0081018A28AD01A630AE000A
:1000780081018B162C08AF002F07203E84008313C4
:100088008001840A80018A280108AD0081013B10A3
:1000980050302D02031C772857302D02031877287B
:1000A8009E302E02031C8A28AE302E0203188A289E
:1000B8002B080C3CAF00AF0A0130B0000030B10093
:1000C80068280310B00DB10DAF0B65282C08B200DD
:1000D8003207203E8400300883138004840A3108E4
:1000E80080043B148A289E302D02031C8828AE30D9
:1000F8002D020318882850302E02031C8A285730F6
:100108002E02031C75288A288030A6000B103B1C81
:1001180098280C302B06031D95280130AC07AB013D
:1001280097280130AB073B1003302C06031DA1288C
:100138000B10AC01AB01BB14A60135088A003408CA
:100148008400330E8300DE0E5E0E0900073099002E
:100158009001D1308316810088308B009F010830D0
:100168008500831285010830831696008312BB1C14
:10017800BA28A701BA013A08B7003707203E840019
:100188000008B800840A0008B90004300310B90C4C
:10019800B80CFF3E031DCA283808AA002A0A031D06
:1001A800E8280130A7073A08B7003707203E84003F
:1001B8000008A9000F30A9053A08B7003707203E04
:1001C80084008001840A80010130BA0703303A02B2
:1001D800031CBF2803302706031DFB280514280825
:1001E80029060319FD282908A8000121FD28FE3049
:1001F8008505AB01BB108101BA282908B600033078
:100208000310B60CFF3E031D0429361C0D29851664
:100218000F29DF3085052908B60002300310B60C17
:10022800FF3E031D1229361C1B2905161D29EF3018
:1002380085052908B60001300310B60CFF3E031DE2
:100248002029361C292905152B29FB308505291C51
:100258002F2985140800FD308505080064008001F9
:0C026800840A040603190034040633293C
:02400E008431FB
:00000001FF
