:020000000D28C9
:10000800DE00030E8312B3000408B4000A08B5002A
:1000180017280E288312BB018313203084002F3049
:1000280031218301AD280B1D2B280B118101803054
:100038002602031C292888308B00A601AC01AB01DD
:10004800FE308505BB1063002B280130A6070B1C6A
:100058008D280D3083122B0203188D28851C4A2801
:100068002B0803193B280108AE0081018C28AD013B
:10007800A630AE0081018B162C08AF002F07203E5A
:10008800840083138001840A80018C280108AD0054
:1000980081013B1050302D02031C792857302D0266
:1000A800031879289E302E02031C8C28AE302E02AD
:1000B80003188C282B080C3CAF00AF0A0130B000A5
:1000C8000030B1006A280310B00DB10DAF0B6728DE
:1000D8002C08B2003207203E8400300883138004C5
:1000E800840A310880043B148C289E302D02031C9E
:1000F8008A28AE302D0203188A2850302E02031C9D
:100108008C2857302E02031C77288C288030A600B4
:100118000B1083123B1C9B280C302B06031D9828C0
:100128000130AC07AB019A280130AB073B10033014
:100138002C06031DA4280B10AC01AB01BB14A601AF
:1001480035088A0034088400330E8300DE0E5E0E04
:100158000900073099009001D1308316810088305A
:100168008B009F01023085008312850102308316BF
:10017800960063008312BB1CBE28A701BA013A0887
:10018800B7003707203E840083130008B800840AAC
:100198000008B90004300310B90CB80CFF3E031D69
:1001A800CF283808AA002A0A031DED280130A7071E
:1001B8003A08B7003707203E84000008A9000F302E
:1001C800A9053A08B7003707203E84008001840A51
:1001D80080010130BA0703303A02031CC3280330F8
:1001E8002706031D002905142808290603190229D2
:1001F8002908A80006210229FE308505AB01BB109D
:100208008101BE282908B60003300310B60CFF3E52
:10021800031D0929361C122985161429DF30850586
:100228002908B60002300310B60CFF3E031D17293B
:10023800361C202905162229EF3085052908B60025
:1002480001300310B60CFF3E031D2529361C2E294C
:1002580005150800FB308505080064008001840A44
:0A02680004060319003404063229CD
:02400E008431FB
:00000001FF
