:020000000D28C9
:10000800DE00030E8312B5000408B6000A08B70024
:1000180017280E288312BD01831320308400313045
:100028003B218301C028BD1C2D2827302702113011
:1000380003192602031C252810308506A601A701EE
:100048002B280130A6070318A70A0030A70781014B
:10005800B7280B1D40280B11810180302802031C92
:100068003E2888308B00A801AE01AD01FE30850521
:100078003D1140280130A8070B1CA1280D302D0286
:100088000318A128851D5E282D0803194F2801088B
:10009800B0008101A028AF01A630B00081018B1605
:1000A8002E08B1003107203E840083138001840AA2
:1000B8008001A0280108AF0081013D1050302F02B7
:1000C800031C8D2857302F0203188D289E303002CC
:1000D800031CA028AE3030020318A0282D080C3CC1
:1000E800B100B10A0130B2000030B3007E2803101D
:1000F800B20DB30DB10B7B282E08B4003407203E97
:100108008400320883138004840A330880043D1471
:10011800A0289E302F02031C9E28AE302F02031801
:100128009E2850303002031CA02857303002031C90
:100138008B28A0288030A8000B103D1CAE280C305E
:100148002D06031DAB280130AE07AD01AD280130E7
:10015800AD073D1003302E06031DB7280B10AE0166
:10016800AD013D15A80137088A0036088400350E10
:100178008300DE0E5E0E0900073099009001D13031
:100188008316810088308B009F0108308500831218
:10019800850108308316960083123D1DD028A901D9
:1001A800BC013C08B9003907203E84000008BA00A9
:1001B800840A0008BB0004300310BB0CBA0CFF3ED5
:1001C800031DE0283A08AC002C0A031DFE28013064
:1001D800A9073C08B9003907203E84000008AB0095
:1001E8000F30AB053C08B9003907203E8400800178
:1001F800840A80010130BC0703303C02031CD52867
:1002080003302906031D122905142A082B06031991
:1002180010292B08AA001821BD141429FE308505C1
:10022800AD013D118101D0282B08B800033003101F
:10023800B80CFF3E031D1B29381C242985162629C6
:10024800DF3085052B08B80001300310B80CFF3EDD
:10025800031D2929381C322905153429FB30850549
:100268002B1C382985140800FD308505080064001A
:0E0278008001840A04060319003404063C29A0
:02400E008431FB
:00000001FF
